:030000000208A64D
:0C08A600787FE4F6D8FD75810702083E5B
:10083E001208B21208007F551208BC7F501208BC75
:10084E007F451208BC7F531208BC7F501208BC7F34
:09085E00701208BC12089880FE1B
:0A08B200E4F580F590F5A0F5B02202
:080867008FA0D2917F967E0064
:10086F00E4FDFCC3ED9FEE6480F8EC6480985007C4
:07087F000DBD00010C80EC2F
:01088600224F
:0A08BC00D290120867C29102086F83
:0708870012086F7F307E00B4
:0A088E00C290120867C29102086FC1
:100800007F987E3A1208877F947E111208877F2C8A
:100810007E0112086F7F301E12088E7F8A7E0212C0
:10082000086F7F387E0012088E7F0C7E0012088EC3
:0E0830007F017E0012088E7F067E0002088E79
:0E0898007F027E0012088E7FDC7E0502086F54
:00000001FF
